:100000000C94BC140C94E4140C94E4140C94E414B8
:100010000C94E4140C94E4140C94E4140C94E41480
:100020000C94E4140C94E4140C94401F0C94AF1F33
:100030000C94E4140C94E4140C94E4140C94E41460
:100040000C94E4140C94E4140C94E4140C94E41450
:100050000C94E4140C94E4140C94E4140C94E12136
:100060000C94E4140C94E4140C94E4140C94E41430
:100070000C94E4140C94E4140C94E4140C94E41420
:100080000C94E4140C94E4140C94E4140C94E41410
:100090000C94E4140C94E4140C94E4140C94E41400
:1000A0000C94E4140C94E4140C94E414060F525DC4
:1000B000D96F75EA5D9D4A7145173D060792534910
:1000C00026AB52A5011A0F76CAA6D3E9BC92DB99DA
:1000D0002653442955B276CE39E99C93CE3927B7B9
:1000E0009D8D2F782C3A1B0F9CDBA6A34DA7D3E93F
:1000F000D8D3DBADB25B259574CE29BB8D28BE74F9
:10010000DA39E7A4924A2AA9A4924A2AA91CCE4223
:10011000537CD9340C0FE4CE299B8E359D4E6797C6
:100120004E71A6D3E9D0070B0F74CE29B90D6BD948
:10013000D3E9B4924A2AA9643A1D2D0D0FEC4A86E0
:10014000AEB4923A1D9D9352492595544A2AA97AF4
:100150002557B79D2D0D0D0FECCE2939B6D25BE793
:10016000EC7E2B955452492595924A2AA9E476BBF8
:10017000CE02170FE8B23BA7E4361DDAD25BE7ECFC
:10018000784B6FB7DBED76ABA4924A2AA9A4924ACA
:100190003AE79C734E2AA9A4225B020F0FEC4A8611
:1001A000AEB454F8DA6E9554D239E7A4924A2A29AB
:1001B0009554524945B6030A0FA4DA86AEB4725E6E
:1001C00059E79C73CE39E79C73CE71F50A0F0FEC9B
:1001D000CE29B94D87B6AD9DCD59E79C73CE39E791
:1001E000B6DBED564925959C150D17D09492DBE8AA
:1001F000D3692559777244399776BBC9D4C88A57D1
:1002000049279DD201080F96A32BADA45733A7D33E
:100210003129050C0F940C5DB94BBF4A293275DAB0
:1002200039E7A4924A2AA9A4924A5203201768B334
:100230004B259554CE39279554763B99924A4925BA
:10024000B74B2595734E49E59C73CA39E7B8665B91
:100250002B27955DA7B3334DA6C814573882AAD271
:10026000DBED76BBDD6EB7E9A0211D0F7476A99496
:10027000DC86AE743A9DCE39E79C7352492595547D
:1002800052492515D96CBBF45649E79C934A2ABBC1
:10029000DD6EB7DBEDA11F1D0F7476A994DCA6A35C
:1002A0004FA7D3E9EDD239279D734E2AA9EC3A1D09
:1002B0009ED25B259D734E2AA9EC76BBDD6EB78777
:1002C000A6747ABB55D2392527CA5636071E17A4FD
:1002D000724EC96D3A1DD93EE7F44A5AFB369DDE8F
:1002E0006E9574CE39A9EC761DBED25B2595DC4A9D
:1002F00065B7DBED76BBDD6E974AAAE8D2E9ED562D
:1003000049E7949C285BD9E03E2017D897CA39E783
:100310009454524925955452492595DC2E955452B2
:1003200039E79454CE39E79C924A2AAED9F64BA7C6
:10033000EC3A1D2EE1B4743A9D4E073D01220FA404
:10034000724EC96D3A1DD93EE7F44A5AFB369D4EAE
:10035000A793CA39279554524925955452492515D2
:1003600099225354E9AD924A6EA5B2DBED76BBDD1E
:100370006EB74B2555D0101717A02795543AA9A44E
:10038000549F92EA5376BBDD6EB7DBEDF6ED769BBC
:100390008E79AB9C5374E9ED76BB55524925957423
:1003A000CE39E79C734E2AA9A4924A2AA914291986
:1003B0000F96A3299D6E25978A3AE7A4734E2AE9E2
:1003C0009C73CE51CD36573A9D4E2BE99C73CE4946
:1003D0002595545249E56C4805180F94DC6ED3E915
:1003E000747ACEED52F9747A573BA9A4924A2AAE98
:1003F000D9E64A6FB7DBED564965974A2AA9E476F4
:100400001B3A01190F9C5372BBDD6E15B1924BC59F
:10041000944EA572B5734E2AA9A4928A4B914DB6FB
:1004200055D239E79C53524925955452C96D6806F7
:10043000160F96A3A9945C2AEE745649E79C74CED5
:1004400039AED9664CA7D35B259574CE39E7945461
:10045000721B1A01160F96EB68D36925D32955EA4A
:100460005B9DDE6E9594CA392595CC4AF5C7B4BD1F
:100470009C73524925955452492595738E339D0E90
:100480005D152FD87E7B2A255DE79C4E6F95B4A322
:10049000DA295D2B955255AFCAEE73D88D6EAEDA60
:1004A0004574A976959C4D493BF211B452CAA6D326
:1004B000E9743ABAF0B724964E2A9DDE6E95745CC4
:1004C00015F6A24BC7964E87460E2F30B43D959237
:1004D000AE734EA7B74ADA71B4744EAECB57A9AA21
:1004E00094B5EB1C6B7473D539A73E55BB52CA8EBD
:1004F0004404AD64685C124B65476074E9D8D2E986
:10050000D0042817B8D2C9AA5455AA2A5595AA6466
:10051000D557A5B2AA5DBAE64BA7A492E9743A9D55
:10052000DE6EB7DBAD924A9552A55429554A9552D5
:10053000E5D2E974F495AC6CE73A97AB5DADFAAAF5
:100540005BDD4A3A752B7C6EB7AB52AA949295ACA0
:10055000643AB456B292DB743ABDDD6ED3E9743AB4
:100560009D4E2BA9A45D49259594727BC974B8054D
:1005700018173074E9D46D57E79CAB9D73DBED76AB
:10058000ABA492524985B364E752BDEA5521B473D6
:100590005DD7755DD7E99454CEE1512AE79CDBAE77
:1005A000D3F16F934A2AA94A392E2217A8D3E94BCF
:1005B00056B29295AC747AFB769B4EA7D3E9ED7652
:1005C000BB555249259574CE39B95DA723DD6667C1
:1005D000534C55AA4A96AA4A291D3AD3E9542A955A
:1005E0002A773927955CA7D3E9F09C4E3B57954A6B
:1005F0003BA74AE6C3392017A8B6B1CDA6D894EBDD
:100600009CAB743A9D4EA7D3DBAD924A2AA9A47342
:100610004ED9ED3ABD4E874BE7DE6E67DB6ED749AC
:1006200025955476E79C73CEC1A51727B0BA734AB7
:100630006ED3D1A7734896954EAFD3E9AD73769B31
:10064000AE6C65436E5A49A9F8B752C1444AE99C59
:10065000D339E73A05D9011D27D016593AABA4730F
:100660004E492595DC8EA85E4925F3E94A8725E7A2
:10067000DCFCE9F47EA6ACC250161A4A6795734EAC
:100680006EB39145BE84849297AB645A49259DB35D
:100690003BA7732E37840A231FB0B45D2AA9ECAAA6
:1006A0005FDDCED9743A9D8F2CBB737625ED4A2A37
:1006B000A9A4934A2ABB8D2859C9C8A5B2EBB05545
:1006C0004965D331669583AEB24BA76CD44B27678F
:1006D0009BED65F054BA92DBED36B44517B4041FB8
:1006E000174895734A2AB9DD2AA964ED7AADB0B4EA
:1006F0005D3BA9AC9252D975F8DB2A69674EA7ED2C
:100700007687A71DF75649E7A4924EBA4FE6C3D2A3
:100710004A6EB74BE55CB469E7D2CE4534CE0115DD
:100720001768B34B25955DF5EADBD5369D0E5DE97F
:100730001CF556492595740E4D4B37978E2E8F47D5
:1007400025955452C9B1155DF41817B0B4544A6ECA
:1007500043533AED9C5D874CA5747ABB5D6FB75BE4
:10076000B94D6F95744E3AE99C9C2859C9A8B7DBDE
:10077000ED76BBDD6EC73A2B0FE8B24B2595544E94
:1007800039A79C734A2A9D4EA7D3E9747AABA45427
:10079000A595944A2AABEC76ABA47352D9ED76BBFF
:1007A0009D2EBAF8B74A2AA9E8D3E974524925958B
:1007B00054524925D311A6B7BBDAD5CE39E79C737D
:1007C000CE39E76A57BBCE752EA264C755F9B8007B
:1007D0002C0FB89C924A2AA9634AA7D376BB5DDD49
:1007E000EACE75EA536F7784BD55D2A6D3E9743A41
:1007F0009D4EA7934A5652B95B49C536DBD4E9747E
:100800003ABDDD2AA9A4924A2AA9A4924A2AA9E4B7
:100810007C4965B74B2595DC6EB7DBED763B5B74A9
:10082000A10F2717A894B3DBEDD84AA7954E49F539
:1008300029A94AA9D2A94FA73E9D4E070FA5D35B70
:10084000259554D23925B7A9ECD229A9A473CE6D28
:10085000B7DBED76FBD6EE9C554A2AA9A4924A2A2C
:10086000B2D9864C011F17B8DC76BB754EC96D3AFC
:100870009D4EA795EB9454DF5239E79C535CB38DA2
:10088000CD9C53524925955472BBDD6E97CA39E70A
:100890003EA5A42AE5A492CE39A9A492CA6EA78B3C
:1008A0002EFE743A9D4EA7D3E9E8A38B369D4EA742
:1008B000D3E9E8A28B0E200FA8763ABDDD6E95B481
:1008C000979FCC39A7A4B24A2AABA4B24A2AE99C82
:1008D0005452D9ED3A1DDED25BE7B6CE6D436F3A86
:1008E0009DDE6EB74A5E2E5DF9B8001F0FA8949387
:1008F000D3A7D36E2A6527EB9CDC6ED7EBF4564961
:10090000259D934A87B7F45649D53B677736A4A609
:10091000B74A3AE79C73AA943A35513E260917BC68
:100920009DB19295ACA8F895D4F16FF1E45CDAB979
:1009300074CD050917BC9DB19295ACA8F895D4F17A
:100940006FF1E45CDAB974CD051517489592B3A63A
:100950006B2577CA39A9F4AA5DB45BE7EC7C522118
:100960000A7DE8629C4C9129A42A32C536191E17CB
:10097000C8D5ACE9DA39A59C7252E95CAFE43A9F7C
:10098000DE2AE99C5D87471D9A1AAB6925A5B2EB63
:10099000FC5649E7A4B2314EA6C814E4349B629BCE
:1009A0000C2217D094544A6EA34DD74AEE9473523A
:1009B000E955AF6C7CE9AD9252D97548DCC990B469
:1009C000544A86D6F45649E7A4B2EBF55649E7A453
:1009D000B2314EA6C814E4A5C814DB641017889D74
:1009E000C2D776ABA4543AF6A41B69D9A572CE3906
:1009F00025E7CD663BA7E4F672A1131C17F0E8C605
:100A0000503A9D4EA7D369259D93CAAE43533ABB36
:100A1000545239A76458CA2E95734A6ED3DBAD730E
:100A2000FC69DECE29F929E79454A5B6DB74E8DD2C
:100A30003AB7752EA6A900131708B7CE39E73A259D
:100A40007552E974F45B1DDAD2D9ED5295C250FCAF
:100A50005251E72AF929E79454A5B6E974B45BA981
:100A6000B6524D3415201FD0EB46553A9D4EA7D3B4
:100A70004A4AA5435E252B5939E79C73CE29A964C0
:100A800058CA2E95734AA6B75B25A5B2F3A5B7CE73
:100A9000D989D3C15AE9AD73DB5B6D7B281110177F
:100AA00088E57CE9743A9D4E4B654757232D9DDDC3
:100AB0002E9593F3E62AF929E79454A5B6A11118C7
:100AC0001770E9C6DF5686B34A56B2725249259569
:100AD0005438CB39FEB492FCE9D0BE956A2BD5448C
:100AE0005302201FD0EBC6D15291A7D34A4AA54347
:100AF0005E252B5939E79C73CE29A96458CA2E95D7
:100B0000734AA6B75B25A5B2F3A5B7CED989D3C1E1
:100B10005AE9AD73DB5B6D7B28111C17F0E846D1F9
:100B20005291A7D34A3A27955D87A67476A9A472F5
:100B30004EC9B0945D2AE794DCA6B75BE7F8D3BC56
:100B40009D53F253CE29A94A6DB7E9D0BB756EEB20
:100B50005C4C5301140FE8729553CEE5D3E9EC5287
:100B60004DB8239B6DB9936329DAD0185DF4101743
:100B7000F8D7BA76CE6DD35BE76A17D10E494A2A09
:100B800027E7CEAE235E3AC53CD96C63499129B6BE
:100B9000C9000917BC9276A2743A461C912932A268
:100BA000F10B1E17B0B873B3A6D3E9ECBDEAA5727A
:100BB0005259E79C53D239A97468CA2E9592DBC862
:100BC00097CA3925B7A16F2B157FDA39BECE29799F
:100BD0003925B7DBA023E7D2CE4534172317B0BBA6
:100BE00073D1A7D3D9A56A752B27D3E9AD92CE4986
:100BF00065475F76A99C5372BBCDA6B3DBA5724E49
:100C0000C96DE84B6F9DB3F3A59594334FA6645A15
:100C100041628A4CB14D061D27D0974E67B7DBED78
:100C20005249E59C73CE29A9A4724A2AB954D255D7
:100C3000AA2A551573763BD7AA6D7675ABA592CACD
:100C4000392595DC6ED3A1196770189AB61058ED46
:100C5000F28ACBC15D1817D85632FADA39B75C3A46
:100C6000A557ADE24B6F9DB3E3CB39BB0E41CAD95B
:100C7000F19456522ADEAD7318DBA59D4B3B173A13
:100C80009D4B3B17D15C1F1FC89454CE396757BD8D
:100C9000D2B95EDD6ABBDE6E9554D239E7A492CA42
:100CA0006ED7E9F02715BE74784BA7D3DBAD924A17
:100CB0003AE79C73CA7636A26CD44ACAF56C934163
:100CC00069D1451734061117489592D1A56BE7767F
:100CD000CAE9AD73B58B8ED7393BBF92527925F1F6
:100CE00084A8C9661B4B8A4CB14D061017BC553AF7
:100CF0005D3BE7B6E9AD733517DE94B4A32B9D7564
:100D00004E5EB6B261683245A690091C1FD8B6CBBC
:100D100074AE5C6757FDDBED76BB54524925957385
:100D2000CE39E79C73CE39E75C252B59913A87275A
:100D30001DFC25155D7410D76CB30D6B011117B830
:100D4000B6CE39E7ECAA57B2B6DB53D2C94A3AA9B4
:100D5000A452D4697CF1873E7749A5934AE770098C
:100D60001D17C8D5ACE9DA39B7DC2A295DEDA24DEB
:100D70006F9574CEAE43A01C4D3917BAD25BE7A471
:100D8000B2EB78D35BE7E4CC9329320509E5B39560
:100D9000CD67F391012217D096DD3925674DD7CE67
:100DA000B9E55649E96A17ED5649E7EC3AEC65951D
:100DB000732329BB54CE6D435F7AEB9C54761DEFB1
:100DC000D639A96C8C93293205792932C536191583
:100DD0002FA44A87BEF4562A3CA6D3ED42262E9570
:100DE00054D239A7A492CA8E2F25A5C235DE926EA1
:100DF000BBDD6EB7DBEDF8520A575B25A5934A4A77
:100E0000259554CE395C29A9A4924A2AA9E476BB37
:100E10001D7B0E2F889D435F7A2B15A5533A943A7C
:100E2000259574CE2994E5A4C219CA726EAC2985A1
:100E300029E7A4D2E14949259554524925B7DBED6C
:100E4000EC281794924AE9743A9D4EA7A3DF6EED01
:100E5000DBB1974EA7D3E9ED76BBDD6EB74A4925E6
:100E60009554645249A5D3C159D9EDCE39E7DC7602
:100E70009B0E6DCE39E79C734A6E95545249259569
:100E8000DC6EB7DBAD73CEE9743AE7EC76BDDD2AF4
:100E900025154A01181788ED36BCA5D3E9747ABB2D
:100EA00075CE399D8E52293B65188F5F4925F19487
:100EB0004EDBED76A9A452524925954C4BE794544C
:100EC000CED9ED76A9002217189554D26EB74A2ACA
:100ED000A9A49252A5435F3A9D4E6FB7DBAD924AEB
:100EE0003AE79C545229E79C92CA39A96430D576D6
:100EF000ABA45276BBDD8ED7ED562ABBDD6EB7DBD9
:100F0000A52A85A2743A9D4EA7D3E934201776CE40
:100F100039A79C734E2AA9EC7674A6D3DBED56490B
:100F2000259574CE39A9A4B2DB51271567F4B1AF6A
:100F3000D3E9A4924A2A49994EA7D3A12F9D8E2E78
:100F40009D0E7A021727B0B9734A6E435FEE302ABE
:100F5000435D5A49E99C5476E9142ED34A4A85AF39
:100F6000AD5498570A75901C1D27D0955D2AE79CB3
:100F700053524925B7DB6DC8DB3925A5924A3A475C
:100F8000EA940D06CAA23B9D5E2A27B72372897395
:100F9000E5A4924A2AE79C934AA7439072F028233B
:100FA0001F68B34B259573CE29B94DA7C35E769DB7
:100FB0004EA7734E2AA9A492CE39A9A4924A2AC553
:100FC00025955D87E9AC72D05376E9940D5761CCD5
:100FD0000D2FA59D73CE392595DC469B4E6FB7DB53
:100FE000EDB0111F17C894734A6EB7E9743AF4A6AE
:100FF000B74A4A65D7E16BABA41D75236EE7D25B98
:10100000259D93CA6EF7E9AD725291AE6C3A9DCEB2
:101010002E9573DBAD545249259554D23954460F61
:101020001517E8B24BE59C734A6EB7E9704BB5559E
:10103000D239E79C435B761D9EF0E69C73CE39E780
:101040009C738A7CBBDD6E67051817D8974AC96DFB
:10105000E84B3B67D7214F29843A2595744E2ABB2C
:10106000DE2AABA4924A2AC5A4A4924A2AA9A49231
:101070004A2AA9A4920AD92B0F7476A99C73CE3957
:1010800025B7E9A0A3743ABD55D239A9A4924A2A3A
:10109000A9A4B2DBED76BEAD92CE39E79C924A2A86
:1010A000E99C73CE39E79C73CE39E79C73CE39E760
:1010B0009C7352492595545249259554524925957A
:1010C000545249E59C5452492595944A012C0F9C51
:1010D0005372BBDD6EB7E9743A9D4EA7D3E9743AFB
:1010E0009D4EA7D3E9D09D4E2AE99C73CE39C79473
:1010F000DE6EB75B259574CE39E79C73CE39E79CDD
:1011000073CE39E79C73CE39E79C73CE392595545D
:101110005249259554524925B7DBED580327174FFF
:101120000D7339E79C54524965B7DBED76BBDD6E34
:10113000B7B3A6B75B259D73CE39A99C93CA6ED76A
:10114000E9743A9D4EA7D3E9743A9D4EA7934A2A73
:10115000A9A4924A2AE79C73CEC1A11F179CDBA6C3
:10116000D3DB6D3A1DD6D2D9ED76BB54CE29A9A4D6
:10117000920A79391B52B3DBED76BB555249259D56
:1011800073CE39A9A4B2DBED763B5F7ABBDD6EB7D7
:10119000DBED769B4E6FB7DBED36BDDD6EB7DBED7D
:1011A00036BDDD6EB7200FD40E87692595DD6ED76D
:1011B000E97C3ABDDD2AE99C73524965B7EB74FCC2
:1011C000E9AD545249259554DBD0984E6FB75B2555
:1011D00095744E2AA9A4924A4AA5001F0F947272D0
:1011E000242E955452D9753A1D6F7ABB55D239A920
:1011F00074784A6F95D4E9743A9DB32131BD55D2C4
:1012000039A9A4B2EB747AEB9C54010917EDF8E309
:10121000535287AF2DAF5452492595545249050971
:1012200017EDF8E3535287AF2DAF5452492595542B
:101230005249051517C89492232DBBDD8EAFAD73AF
:10124000562BC4A10B7D39E79C73CE39E79CC3A113
:1012500073CE39E79C73CE39071E1748D5C8CB6EBD
:10126000B7EB74BCE9AD92CED97578435F632F9D1F
:1012700056522ABB8E77ABA47352D972CE39E79CF3
:1012800073CE39071729A9A473CE39E79C732217A7
:10129000E8934AC96D58CB6EB7EB74FCE9AD925236
:1012A000D97548DBC990B6544A86C6F45649E7A4B6
:1012B000B2EBF8D25B259D93CA9673CE39E79C7347
:1012C000CE39B8CA39E79C73CE39E79C03101708AA
:1012D0009DC25F7AABA4543AB69D1B89D9A592CA28
:1012E0003925D7CA392795545249259554A1111C3F
:1012F00017F0E7C6705A49E7A4B2EB68B3DBA572F2
:10130000CE3925C35A76A99C5372ABA473F84A7B95
:10131000A9A4B2DBED76BB5DC9ED36742A299554DC
:10132000524965B7CE0D1317BC9252D9F1BBD5A166
:1013300029ABA472CED9702A15935252D9ED76BB3F
:10134000DDBEDD6ED35BBBDD6EB75BE706201FD075
:101350008AE8B49252E970E59C73CE3925955452CF
:10136000C96D58CB2E95734A2AA9A45476FEF4D69B
:1013700039BB57524925954CA7D3E9743A9D4E87FE
:10138000D6F4562AA9EC76BBBD1C4C08101708E50C
:10139000F894CA4EDFC84C6797CAC9B55252D9ED06
:1013A00076BBDDBE0D7D181770E8C6AB0C45524903
:1013B00025B7DBED766CA795E4DB6EB7DB743A9D61
:1013C0004EA7D3E9743A9D56D26EB7DBEDD63926D7
:1013D000201FD08AE8B49252E970E59C73CE39257B
:1013E000955452C96D58CB2E95734A2AA9A45476A8
:1013F000FEF4D639BB57524925954CA7D3E9743A28
:101400009D4E87D6F4562AA9EC76BBBD1C4C081C11
:1014100017F0E7C6705A49E7A4B2EB68B3DBA572D0
:10142000CE3925C35A76A99C5372ABA473F84AFBF4
:10143000524A2ABBDD6EB7DB95DC6E43A792524958
:10144000259554F672CE0D140FECCE2939B2B24B5D
:101450002515D292729B4E6FB7DBED762CA5D3DBB0
:10146000ED763B2B101778B798DD713AE79C1C5747
:10147000216AE9149173CE39A7A4924A2A52E79CB3
:1014800073CE39E79C730E091795B4E38E135F5240
:10149000F1A6D3E9743A1D1D1E17B0B77323319D11
:1014A0000E4F4A3A27958E36BB544A6E43D6523970
:1014B000A7E436746DA5C257DAC994924A2AA9A442
:1014C0005252C96DE8974A2AA9A4924A3AA7002322
:1014D00017B0BA7361313CA5B74A3A27951D5DD95B
:1014E000A5724EC96D3AF67476A99C53721B9AD2B6
:1014F000E9AD7376FEB4927222E79C73CE39E79C15
:10150000732E1D34E59C73CE39E79C73CE011D27E5
:10151000B0B6DD6E974A2AA9A472CE3925955472C9
:10152000BBDDA6634B67B7DBAD5F2AA9A452B8CA7F
:101530006E97CA39E7945472BB4D874E1CC25978D6
:10154000CB42585249259554524925A12C1817ECE5
:101550004A86C5EC3AFEF4D6393BBF73761DC29479
:10156000B3F3A695940A4F5BE710E49454524925CF
:10157000955452853EA9A4924A2AA9A4730A1F1F12
:101580009C73CE392595DC8EB5747ABB555249E7EC
:101590009C934A2ABB5DA7C39354F8D3F1A5D3E922
:1015A000F476BB555249E79C934A2AA9EC56592533
:1015B0009D738A494919DAA0B0ED76BBDD6E87BD0F
:1015C000001117C89492A1DB3B67475858E475CEC9
:1015D00039E79454524925D369E79C73CE39E79C87
:1015E000730E1017EDF8C593927634A69555522ACE
:1015F0001BA173CE39E79C73CE395C450B1C1FECE5
:101600005249E5DC36F6743A9DCE6EB7DBA5924AB8
:101610002AA9A4924A2AA99C73CE39E79CC39B0E9F
:10162000BAB2E30BA25252492595545249055901C9
:101630001117DC522AA9A4924A6E435B3A9D558A3F
:101640002A8D3F9FDE6EC7960B6D38041D1748D557
:10165000D84F6F9574CEAE43981C6D39176D3ABD57
:10166000754E2ABB0E4FE9AD737222E79C73CE39DB
:10167000E79C73384F6F9D73CE39E79C73523922C4
:1016800017D095DD3925C7FE5649E7EC3A6C6595CC
:1016900073232DBB54CE6DD3D1A7D35BE7A4B2EB9C
:1016A000F0B4754E2A5BCE39E79C73CE39E75CD037
:1016B00053DA39E79C73CE39E79C030207A553360A
:1016C000090D3F4043A5D3E9B0B5CCE692DD5FD923
:1016D000EAAACA554D9C8D371B5F36BA340D3FC1FF
:1016E000BF012F0FABAAABEAAABAAAAEAAABEAAA6D
:1016F000BA72D5A9AAAE4E55B9B25575555D5557B2
:10170000D55575555D5557D55575555D5557D555B5
:1017100075555D5557D55575555D5557D555755505
:101720005D5557D55575555D5557D55575555D550D
:1017300057D55575555D55D55DA9AAEE4A557557CE
:10174000AAAABB5215EFBB9295AAEAAE545577A54B
:10175000AABA2B55D55DA9AAEE4A557557AAAABBB8
:101760005255DD95AAEAAE545577A5AABA2B55D5A0
:101770005DA9AAEE4A557557AAAABB5255DD95AA8E
:10178000EAAE54052727D0974C06252693C920BFDB
:10179000989795CF75EE53AA94BA5DED2E594927C7
:1017A00095745249E79C934A2ABB5DA743673299D7
:1017B0000CEBE97C3A9FAC64E72EF729554ADDAE85
:1017C0007697ACE4252BE99C5B2593A94A29E7A4ED
:1017D00092CA6ED7E9E0B5743EBAE8A28B2EBA2C55
:1017E000272741E3A5D3E9743A9D4EA7D3E9743A7C
:1017F0009D4EA7D3E9743AF808FE4AA7B75B259532
:10180000545249259554524925955452491327302D
:10181000B93D9592AE734EA7B74ADA71B9744EAE20
:10182000CB57A9AA94B5EB1CFE6ABBABADEA9C539F
:101830009FAA5DEDA4B26348AEE3565239E79C73AC
:10184000CE29A9A492DB70D5CEB9DAD54E3AA974C7
:10185000A805132710E81CFAD25BA950E7940EA53F
:10186000184AA7A4924A2AE439271521F2B64B2533
:1018700095545239E79C734ACEACD2E9743A9DDD57
:101880002A291546013A0F543A6BD32A9D4EE7D2C6
:101890007C2E9D4DA7A57364CA3975B9CE75AE73FC
:1018A000EBF0A69C5397EB5CE73AB78E2D2D957421
:1018B000E96C3A2D9D635BAA6BE5A4B2CA3AA9F81C
:1018C000B64AA7B3DBD89454EC4B252BB2F47A9DDF
:1018D0004E67B7612DBD5EA7D3D96DAC4A2AF6A578
:1018E0009215597ABD4EA793DB2D7F3FA1E5A472D7
:1018F0004E49F5A96C68CFA7A573CE49A5033FB69D
:1019000093AADCD649259D7365B7DBFF556FB7DB1E
:10191000EDAAFFB7CB4AE69454CE39E796AA768370
:10192000DADAAA7297734ED9A572576EE594949538
:10193000AC745249252B9DACEECA75AE53BDEA5D21
:10194000E73A59C94A77575249A59395AC94744ED2
:10195000BFBAA4B24B259DBB942A35646A9D73CE51
:10196000AED341704A3AA9EC76BBDDAED4ADEE9C65
:1019700073CE39E79CAC6425AB73DD95ACAECE7508
:101980002A954A75AE57A95457E73A59B9CE752AE0
:10199000D5AB74AF7A95EB5C27AB73C9EAAEEECAF0
:1019A00039E79C73CE397BAB93DBED76BB54CE39F4
:1019B00005C5A5B33BE7DC762CA6B75B259574CEB1
:1019C00039E7A492CA6EB7EB743A1D8694745249F3
:1019D00065B7CA39572A95EAEDAEB6DB4F7D39FBBC
:1019E000A9ED76FBA9FF557F6AD54A2AB95DF5A90D
:1019F000B7A752F656B36D4FA5ECA9577DABED5680
:101A0000DD4AFEAFFA539FDA6EB75FCE7EEA53BB74
:101A1000DAAE7A954AA952CA4925974A2AE79CC262
:101A2000503A9DCE6EB74B259573CE39A7A492DB65
:101A30006DB05868CBAEA472729BEEF4AE76B5ABC7
:101A40005D6DD5AD4E6F95545249255529554A497E
:101A5000554A49259554A55429255529259554526B
:101A60004925D5A7A4FA94549F924A2AA93E25D580
:101A7000A7A4FA94545249255529255529554A4970
:101A8000259554A59454A554A9ED36DDE964254B5C
:101A9000A9DAD5AA57BDDA6E9554D229A9A45D87D3
:101AA000B6E0BFE8D2E9743ADA74BA57E974BA57C3
:101AB000E974BA5731CF3AFBCCA94FA7A39A3C6D32
:101AC0002FF736BD4D6FD3DB72DBE39D7DF6D95723
:101AD000E974BA57E974BA57E974BA57314E954E5A
:101AE000A7D3E9E882F5B24BE59C925BE7DCEA56C6
:101AF000D7AE2B995E3AE5A4AA5DE7EA72579FFA42
:101B000056AA2AA54AA952AA949272A9A45AF5568D
:101B1000FDFF9793DB6DB256F7AA57CE392795BCD8
:101B200064757ABBDA6EB7DBED769F4E2AE95C2DE1
:101B300095ABCB5DEEAEEED5AAD4E7BAEBBA6A7739
:101B4000AFFA73A99473AA94EA5DAD4AB9DAD5AA3B
:101B500094ABBFAAD55D9DAABAEAAF3AD755ABAA56
:101B60007EBD4A7D57A72AAB6427B795CD87577F9F
:101B70003F40662EA56A55AAD42969950E434ED9D1
:101B800076CA6ED55DED6A47B694AA55A952A7A448
:101B9000557ACD5736BDF511D9F4EEF4AE989CB216
:101BA0005DAB539FFA9472970B51691F51A94F7DFA
:101BB000CA76A7ECA5B7CE3ABBBD9453BB6DE08DFA
:101BC000B2DB60DBF456E96C10643A6DB75C4EC969
:101BD000739D4EAFB7D239A6B4DDAA54E73AD7B950
:101BE000FE9C738A6FA9EADC259555D6494597FD79
:101BF00054EA92CA3A1D53DA6E553A9B4E5B253130
:101C000095B65B954D6FAD926FD36BE91C9753F210
:101C1000CB75AE739D5BC7E7947C9B4EAF52A93CDE
:101C20009FCBA6D369E91C53DA6E553A9B4E5B25D0
:101C3000B99C925FAE739DEBDC3AB6B4DDAA54E773
:101C40003AD7B9FE9C738A2BBDCE39A748D3E97524
:101C50003A9D8D7E3B6B3ABD4EC79A5EA7D3D9683D
:101C6000D3EB74369D5EC7B69D7DBB0E6BDBD9B7DB
:101C7000B36ED7B1A6D7E974761B6D7A9DCE6EA3ED
:101C8000DBCEBE4EC7BA9D7DBB8E35BD4EA7B3DB46
:101C900068B7B3A6D3EB7450587ABD8E34ADA4B2F6
:101CA000E96C3AADECDC9DBBA4B2EBD095DD3925F7
:101CB00055AF22AC644599964A92A69554369BDE60
:101CC0002ABBDCA6D7EBE8B2CB743ABDDEAE7369B3
:101CD000E79C4DA7E3CD2EB7E9747A1DD4BA74AE54
:101CE00053A954E79C553A2AA924FB4A2A555C4B30
:101CF000A7D7E9542AE59C42584A2AC7ED9CD451FB
:101D00003A27759452496AA924EB4A2A55544A3A0B
:101D1000BB5EA7D329E71499734EAFD3D9B8947497
:101D2000AE57A9542A95CA6E0367097F3F804D2894
:101D3000BD5476E83BD82BABEC76F89497369BCD28
:101D400066B3A129BB555659E99C1D53599DDE9E8A
:101D50004DA7D3E9B5DD3A87A1EC565965A5737651
:101D60000C65694FA7D3A168A9945CDDB9DA55B2B7
:101D70009295AC64ED3A955AAFA3E4A5CB2EB3D9B6
:101D80006C68CA6E9555563A6787BF68CFAEB7CABA
:101D90002AABACB2CA46B674AA3F77C9ED56B9525F
:101DA000AAAC93D2C909695D3ABD55AE76A55ADD94
:101DB0004AD96D644BA7FA7397DC6E952BA5CA3A86
:101DC000299D9CC8AED37A9DCE6697DBD4D639EBDD
:101DD0009C5EA7D7E974769B5D6EA3A43DABACB2C5
:101DE000CA2AABACB2912D9DEACF5D72BB55AE94C1
:101DF0002AEBA47472082AE82D683BA04502020869
:101E0000D4D205087F7F3E1C084120FE0105F1F178
:101E1000F111D1B1D111F151515151515151515192
:101E200051515151510000FF00007F7F09090F06F9
:101E3000007F7F19396F46007F7F49494141002665
:101E40006F49497B3200266F49497B32FF0000FF12
:101E5000FFFFFEFFFEFF0279CD95A5CD790111119F
:101E60001101F9F901010000FF00007F7F09090F4E
:101E700006007F7F40404040007C7E0B0B7E7C0054
:101E8000070F78780F0700000000000000FF000037
:101E90001F3F3F33333333333E36363E363E363ED6
:101EA00036363E36363E360000FF00003E7F41416A
:101EB0007F3E007F7F0E1C7F7F000000000000003F
:101EC00000000000000000000000000000003F4093
:101ED000504040407846414159594141414159594A
:101EE000414141414141414100007F000001017FEA
:101EF0007F0101007C7E0B0B7E7C007F7F09090F38
:101F000006007F7F49494141000000000000007A3F
:101F10007A6A7A7A5E7AB27A7A7A7A7A7A5E7A7A31
:101F20007A7A7A7A7A7A7A7A7A7A7A7A7A7A7A7A11
:101F30007A7A7A7A7A7A7A7A7A8D8D5D8D81A98D9C
:101F4000A98D8D8D8D8D8D8D8D8D8D8D8D8D8D8DA5
:101F50008D8D8D8D8D8D8D8D8D8D8D8D8D8D8D8DB1
:101F60008D8D956B6F676F6FB36FB36F6F6F6F6FA3
:101F70006F6F386B6B6B6B6B6B6BC7C7C7C7C7C7B4
:101F8000C7C7C76F6F6F6F6F6F6F6F6F6F7E7E6644
:101F90007E7EB27EB27E7E7E7E7E7E6A7E7E7E7E0D
:101FA0007E7E7E7E7E7E7E7E7E7E7E7E7E7E7E7E51
:101FB0007E7E7E7E7E7E7E7B7F477F7FB37FB37F0C
:101FC0007F7F7F7F7F737F7F7F7F7F7F7F7F7F7F2D
:101FD0007F7F7F7F7F7F7F7F7F7F7F7F7F7F7F7F11
:101FE0007F75756D7575B175B17575757575756537
:101FF0007575757575757575757575757575757591
:1020000075757575757575757575750102040810AA
:10201000204080D5F08D14A1C881CFD9F1AF200028
:10202000281B131A1708E35BA755B9CBB9524A2AE4
:10203000A994923B27EDD66ED3A9547AA9E476579A
:1020400031A652D9AD72EEAA2A5595AA5455AA5C6A
:10205000AF4AD9753AA9A4EAFFAFEEEA964A2A9D9B
:10206000CE85C590B4DD3AFA70081A17B473CED98C
:10207000CB5D7A3B716E3B7B3A2D552A954AA59DE7
:10208000736EBB5D76EAD3F9E1A4A592DBED8A2AF3
:102090009D4EA7F34A2AA95C3AADA4925249255510
:1020A000BA945452A10E153F94924B25974AEE9C38
:1020B00073AA76A509AD4D6789542A954AA524616E
:1020C000AFFA7BD5AB5E6EB7D9ADE663B2DB2D91CF
:1020D0000ECD9ECFF37A7C7B3ECFEBF1EDF93CAF9A
:1020E000C7B7E7F3BC1EDF9ECFF37A7CEFF339A7C7
:1020F000D3E99CC315153FB6E9D0BFDD6EBD4EA731
:10210000B3DBED52498551BB0D9DF8C42F3EF18BD9
:102110004FFCE213BFF8C4AF92CE49259554524903
:102120002595541245103FE8D2D974369D4D67531A
:10213000A954A73E752955EA52AAD44C4E67B7A9AF
:10214000FB946494AF3AD5ABB67FAFFA5323689D46
:10215000D67C44B41E8F9ECFF37A3C7A3ECFEBF10F
:10216000E8F93CAFC7A3F2F994D4E9744A4251109C
:102170003FEC76A9A472CE392595DC6ED3E14C49AB
:102180002515BE799554129F78C327DEF089377CD8
:10219000E2CD39A9EC76BBDD6EB75B98090F3798B5
:1021A0009493AA57AD4EA952EACE75AED5A955AFB4
:1021B0007AD5AB5EA5C2131F9FE74F872E3E3E8F99
:1021C000573E3E8F573E3E8F573E3E8F57BBD6E918
:1021D000D208030F37F1964EA7D3DBED763B82A5ED
:1021E000924A2AA9245EF184573CE1154F78C51321
:1021F0005EF1040E2F7BD5AB5EB53AB5EA55BBDA7E
:10220000D5AB54AED5BDEA9DC21C1F9FC7271F9FEB
:10221000C7271F9FC7271F9FC7A75DEB74690401CE
:102220000E2F753A9D4E87AF743ABD4414DEF08789
:1022300037FCE10D7F78C39F0E5FBC0B0FA4527279
:102240001BBD0D4169259D93CAAED3297B95AB6C0F
:10225000E5721607CA672B9BAD6C5649E5EC761DF7
:102260006D3A9DDD2E9D734E2A9B03263760A16C2F
:102270005AC9CA39E75CED3A6C65ABBAEAAA6CE5B3
:102280002A5BCBE28C2EBAD96653648A4CB155DEF8
:10229000A5BCF754D225A92AC6AAAEAAABEAAABA07
:1022A000AAAEEAAAEAAAAE6CB642A6239354DA7B97
:1022B0009F532F5DE79CEB7739E53DDD552E57A900
:1022C000AC72369D4E6F9574CE8EE5FD3BAF565E7B
:1022D000ADBC5A79B5F2EF7C7297AF5CA5AE4A39C6
:1022E000DAEC5239373263B2DE7BEF4FFA93FEA459
:1022F0003FE9BDF74C962E8CABF6E7885CCACBF66F
:10230000B6BC26D2449A481369225B5EB63F47A505
:102310001ADB8E4AA598548AAA1CD329A6534CA727
:10232000984E319D622A45748A48728D371C0FE1A0
:10233000392EBB0D55DBED76BBDD6EB7DBED763BA5
:1023400086D23BE73C000000000000010F000000C7
:1023500000020F000000000F00000001000519003E
:1023600000010008000000000005000001008208D4
:10237000000000000005000001007D0D00040100C8
:1023800000051903000078080000000000050000A7
:1023900001007308000000000005000001006E0845
:1023A00000000000000500000100690D00020000AF
:1023B00000110F00000100030000000000050000F4
:1023C0000200000500000200000500000100640595
:1023D000000002000005000001005F05000002008F
:1023E000000500000200000500000100500500008B
:1023F0000200000D000200004B1200000000000C63
:102400000000000000080B000202020000090400A6
:102410000001020200000524001001052401010151
:10242000042402060524060001070581031000406C
:1024300009040100020A0000000705020240000032
:10244000070583024000000403090412010002EFA3
:102450000201404123368000010102030141726400
:1024600075696E6F204C4C430041726475696E6FE4
:10247000204C656F6E6172646F0000EE0001FFEE2C
:10248000010109EA020106EE010008ED0701FBE780
:102490000301F7E80601FADD0801FEEE0901FFEE8F
:1024A0000901FFEE0901FFEE0901FFEE0901FFEE50
:1024B000090103ED0A0118F10B0109EE050109EE0E
:1024C0000C0107EE0500FEEE1601FEEE170107EE09
:1024D0001801FEEE16010EF80D0106EC0E0105ECDA
:1024E0000F0109EC100109EC110106EC120109EDD4
:1024F000150105EC14010FEC13010DF10B00FFF8B1
:102500000D00FFEC0E00FCEC0F0000EC100008ECDE
:102510001100FBEC120008ED150000EC140009ECB2
:1025200013000CED19000CED1A0003F31B0102F56A
:102530001C0103EF1D01FFF31E01FDF61F01FEF557
:10254000200100007F0000007F0000007F000000ED
:102550007F0000007F0000007F00FEFE2700FEF5E8
:102560002800FEF52900FEF52A00FEFE2701FEF5F3
:1025700028010000290000002A0000002B000000B4
:102580002C0000002D0002E1000102E100010BE13E
:10259000010102E1000108E0040108E1020109E093
:1025A000030113D60501F8DF0601FBDF0A01F8DDA0
:1025B0000701FADB0B01FCDF0801FBDF09010BE07F
:1025C0000C0119E10D0102E1000102E1000102E14B
:1025D000000102E1000102E1000102E1000102E16B
:1025E00000010FE00E010AE00F010AE00F010BE00D
:1025F000100106E0110104E0120108E0140104E0FA
:10260000120114E013010DE10D0005E00E0008E0D9
:102610000F0008E00F000CE010000CE0110006E0D5
:1026200012000CE0140006E012000AE013000DE2B4
:1026300015000DE4160004E5170109ED18010DD889
:1026400001010DD8010118D801010DD8010116D8DA
:10265000010119DA010118D801011EDC01010BD8B2
:1026600001010CD801010CD801010BD801010BD8D4
:1026700001010BD801010ED8010119D801010DD8B3
:1026800001010DD801010DD801010DD801010DD8AE
:1026900001010DD801010DD801010FD801010CD89D
:1026A00001010CD801010CD801010CD801010CD892
:1026B00001010CD801010CD8010115D801010FD876
:1026C00001000BD801000FD801000FD801000FD86E
:1026D00001000FD801000FD801000FD801000FD85A
:1026E00001000FD8010014DA010014DC010015DD2F
:1026F000010119E7010119EA01011FEE0101FFEED5
:10270000000005EE010007EA0200FEEE010101ED06
:1027100007000AE7030009E806000ADD0800FFEEEB
:102720000900FFEE0900FFEE0900FFEE0900FFEED1
:102730000900FFEE090000ED0A0000F10B0007EEB2
:10274000050008EE0C0009EE050101EE160005EE8D
:10275000170005EE1800FDEE1601FFF80D00FFEC66
:102760000E00FCEC0F0000EC100008EC1100FBEC7C
:10277000120008ED150000EC1400FFEC130000003F
:102780007F0000007F0000007F0000007F0000004D
:102790007F0000007F0000007F0000007F0000003D
:1027A0007F0000007F00FFED1900FFED1A00FFF32E
:1027B0001B00FFF51C00FFEF1D00FBF31E00F8F6E9
:1027C0001F00F8F52000F4F12100F6F02200F6EDEC
:1027D0002300F6E82400F6E22500F6E2260009E1EF
:1027E000000009E1000000E1010009E1000000E053
:1027F000040000E1020000E00300F7D6050007DF57
:10280000060009DF0A0009DD070007DB0B0007DF10
:10281000080009DF09000AE00C0000E10D0009E1F1
:10282000000009E1000009E1000009E1000009E100
:10283000000009E1000009E1000005E00E0008E0E9
:102840000F0008E00F000CE010000CE0110006E0A3
:1028500012000CE0140006E0120000E0130000007B
:102860007F0000007F0000007F0000007F0000006C
:102870007F0000007F0000007F0000007F0000005C
:102880007F0000007F0000E2150000E4160002E572
:102890001700FEED18000ED900000ED9000003D974
:1028A00000000ED9000005D9000002DB000003D9AA
:1028B0000000FDDD000010D900000FD900000FD985
:1028C000000010D9000010D9000010D900000CD968
:1028D000000002D900000ED900000ED900000ED968
:1028E00000000ED900000ED900000ED900000ED94C
:1028F00000000BD900000FD900000FD900000FD93C
:1029000000000FD900000FD900000FD900000FD927
:10291000000005D9000000007F0000007F000000DB
:102920007F0000007F0000007F0000007F000000AB
:102930007F0000007F0000007F0000007F0007DBB9
:10294000000007DD000006DE000002E8000002EBE8
:102950000000FCEF000000007F0000007F00FFEBA4
:10296000000007EB000007EA000000007F00000005
:102970007F0007DC00002B2211241FBECFEFDAE01E
:10298000DEBFCDBF12E0A0E0B1E0E8EBF4E602C0AC
:1029900005900D92AA37B107D9F727E0AAE7B2E070
:1029A00001C01D92A035B207E1F714E1CCEBD4E1F0
:1029B00004C02197FE010E945432CB3BD107C9F7D6
:1029C0000E9475220C945A320C9400009C01480F0E
:1029D000592F511D4115510541F1803891052CF5B4
:1029E0004138510514F040E850E0421BCB0187709C
:1029F000992791E001C0990F8A95EAF7FB0183E0DE
:102A0000F595E7958A95E1F7F695FE2FEE27F79570
:102A1000E795E20FF31FE055FD4F415030F08191F3
:102A2000DF011197892B8C93F8CF08957F928F92B5
:102A30009F92AF92BF92CF92DF92EF92FF920F934D
:102A40001F93CF93DF939C01EB01FA011491319610
:102A5000E491810F911D70E8721B803891050CF490
:102A6000712FDE0183E0B595A7958A95E1F79A2E3F
:102A700091E08E2F877009F490E0E695E695E69553
:102A80009E0FFD01E90FF11D399714F098E09A1B94
:102A90004E5F5F4F6C2F6770ED01D695DC2FCC2712
:102AA000D795C795C20FD31FA62E062E000CBB08C4
:102AB000171B2FEF30E0062E02C0220F331F0A949F
:102AC000E2F720953095822E732E272F210F332782
:102AD000331F6901892D8A1B891788F58E010055DE
:102AE0001D4FF12CE12CE71620F5FA01EE0DFF1D2C
:102AF000249130E00A2C02C0220F331F0A94E2F71F
:102B000097FC05C0F80180818821822B8083662391
:102B100051F0F6E0F9153CF0F801E058FF4F8081E4
:102B20008721832B80832FEFE21AF20A0F5F1F4F5A
:102B3000DACF4C0D5D1DC058DF4F9394CBCFDF91A2
:102B4000CF911F910F91FF90EF90DF90CF90BF90AA
:102B5000AF909F908F907F90089590914407982315
:102B600029F490914307982381E009F480E00895C7
:102B70008091B0028EBDE1EBF2E080EB96E0219116
:102B80000DB407FEFDCF2EBD8E179F07C1F70DB404
:102B900007FEFDCF089580E0E0EBF2E081118FEFBA
:102BA000002481938193819381930394D1F70895B5
:102BB000FC018091AF02882311F13FB7F89482E0C5
:102BC0008093E9002091F200822F90E018161906F8
:102BD00014F481E090E0882339F0289844E640938B
:102BE000AE024091F1004083222339F02091F2009F
:102BF000211103C02BE62093E8003FBF08958FEF1B
:102C00009FEF08952FB7F89483E08093E9009091A7
:102C1000E800892F807295FF04C09091F20080E453
:102C2000891B2FBF08958091A60281110DC082E0FB
:102C30008093A20284E08093A3021092A5021092D6
:102C4000A40281E08093A60282EA92E00895CF93E5
:102C5000DF931F92CDB7DEB76983DC01ED91FC9164
:102C60000280F381E02D41E050E0BE016F5F7F4FB5
:102C700009950F90DF91CF91089583E08093E9004B
:102C80008091F200882319F08AE38093E800089588
:102C90000E94021690E00895CF93DF931F92CDB764
:102CA000DEB7FC018485958597FD08C02FEF3FEFC7
:102CB000358724870F90DF91CF910895CE0101963B
:102CC0000E94D815019719F4898190E0F3CF8FEF16
:102CD0009FEFF0CF0F931F93CF93DF931F92CDB74A
:102CE000DEB78C01FC018485958597FF0BC0CE0172
:102CF00001960E94D815019771F4898190E0F8013E
:102D000095878487F801848595850F90DF91CF9111
:102D10001F910F9108958FEF9FEFF1CFFC018485F4
:102D2000958597FD0BC09FB7F89482E08093E900EA
:102D30008091F2009FBF90E0019608959FB7F894AC
:102D400082E08093E9008091F2009FBF90E00895B7
:102D500040919C0250919D0220919A0230919B02D9
:102D600042175307B4F49091E8009570E1F3909105
:102D7000E80092FD19C08093F10080919C0290912F
:102D80009D0201968F739927892B19F48EEF8093FA
:102D9000E80080919C0290919D02019690939D0283
:102DA00080939C0281E0089580E00895EF92FF9265
:102DB0000F931F93CF93DF93F82E192FE62E042F36
:102DC00081E0860F880F0E94A81683E00E94A81653
:102DD000CF2DD12FEC0EFD2EF11CCE15DF05B9F055
:102DE00007FF13C0FE0184910E94A816182F80E0EF
:102DF0000E94A816812321968111EFCFDF91CF91F8
:102E00001F910F91FF90EF9008958881EDCF81E0A1
:102E1000F5CFDF92EF92FF920F931F93CF93DF9343
:102E2000D82E8A01EB017B01E40EF51ECE15DF05DD
:102E300059F0D7FE12C0FE0184910E94A816219677
:102E40008111F4CF0FEF1FEFC801DF91CF911F91D8
:102E50000F91FF90EF90DF9008958881EECF0F9350
:102E60001F93CF93DF931F92CDB7DEB782E08983A4
:102E700042E450E065E074E280E80E9409170E9495
:102E80001316DC0112960D911C910115110589F0A4
:102E9000D801ED91FC910280F381E02DBE016F5FBE
:102EA0007F4FC801099597FD04C0F8010085118581
:102EB000ECCF89810F90DF91CF911F910F910895F1
:102EC000615030F02091F100FC0120830196F8CF91
:102ED000289884E68093AE0208953FB7F8948091D5
:102EE0007C0290917D02A0917E02B0917F0226B576
:102EF000A89B05C02F3F19F00196A11DB11D3FBF32
:102F0000BA2FA92F982F8827BC01CD01620F711D00
:102F1000811D911D42E0660F771F881F991F4A95FA
:102F2000D1F708958F929F92AF92BF92CF92DF9286
:102F3000EF92FF926B017C010E946D174B015C01C7
:102F4000C114D104E104F104B9F00E946D176819AD
:102F500079098A099B09683E73408105910580F3D0
:102F600021E0C21AD108E108F10888EE880E83E05A
:102F7000981EA11CB11CE4CFFF90EF90DF90CF9082
:102F8000BF90AF909F908F90089565E070E080E0D3
:102F900090E00C9492178F929F92AF92BF92CF9233
:102FA000DF92EF92FF920F931F93CF93DF936C0109
:102FB0007B018A0180912C01882309F45CC08091F7
:102FC000AF02882309F457C08091A10280FF05C099
:102FD0008091E00082608093E000E801B12C8AEFEC
:102FE000A82E93E0892E2AE3922E209711F4BB207D
:102FF000D9F10E94021681110AC0AA94AA20D9F11F
:1030000061E070E080E090E00E949217EECF8C17B4
:103010001D0611F00CF08C2F9FB7F8948092E900F8
:103020002091E80025FD02C09FBFDFCF282F30E0B0
:10303000C21BD30BF701815020F041914093F10066
:10304000FACFE20EF31EBB2021F09092E800B12CE3
:10305000EBCF8091E80085FDE7CF9092E800BB249C
:10306000B394209709F3F3CF5D9884E68093A00290
:10307000101611063CF081E090E0F6019383828304
:1030800010E000E0C801DF91CF911F910F91FF90F8
:10309000EF90DF90CF90BF90AF909F908F9008956A
:1030A0008FB18095807F669B88601C9B84600895AB
:1030B000EBE0F0E290E1969FD001A0781124A80FF8
:1030C0006770E60FF11D9491A055BD4F442321F088
:1030D0008C91982B9C93089590958C919823FACF7E
:1030E0000F931F93CF93DF93EC018B01C138D10570
:1030F0006CF4C038D10540F40034110528F441E0E7
:10310000B801CE010E9458182296F0CFDF91CF91DE
:103110001F910F9108951F93CF93DF93DC0130E04F
:1031200020E050E040E011E0C1E0D0E02617370792
:1031300091F114968C911497811115C014961C93DB
:10314000149712968D919C911397ED91FC91119784
:10315000E80FF91FE4911596EC93159701961396D5
:103160009C938E93129714969C91149715968C911C
:103170001597892349F0FE01022E02C0EE0FFF1FB2
:103180000A94E2F74E2B5F2B990F14969C93149799
:103190002F5F3F4FCBCFCA01DF91CF911F91089591
:1031A0002F923F924F925F926F927F928F929F9257
:1031B000AF92BF92CF92DF92EF92FF920F931F9345
:1031C000CF93DF93CDB7DEB72F970FB6F894DEBF5E
:1031D0000FBECDBF4C017B012C870D875A834983DD
:1031E0001C821B821D821E8268E070E0CE01019667
:1031F0000E948B181C019C012F5F3F4F3B872A8741
:1032000068E070E0CE0101960E948B188C0161E0AD
:1032100070E0CE0101960E948B182A853B85280D0F
:10322000391D37FDF5C030E8831691040CF0F0C06D
:103230000F5F1F4F98012E0D3F1D37FDE9C040E481
:10324000E416F1040CF0E4C06701F7FE04C0CC24DE
:10325000DD24CE18DF0857E0C522DD242701F7FE64
:1032600003C097E0490E511C73E0559447947A953A
:10327000E1F7F7FE09C021E0421A510828E030E0EA
:10328000A9014C195D096A01980117FF02C0295F65
:103290003F4FA90163E0559547956A95E1F7588737
:1032A0004F8307701127012B21F04F5F5F4F588725
:1032B0004F830D857101011102C0F12CE12C89872A
:1032C00001E010E0B12CA12C88E090E09C012C19C9
:1032D0003D093F872E874F815885A416B5060CF00F
:1032E00097C066246394712C61E070E0CE01019672
:1032F0000E948B18892B21F452E0650E711CF4CFCB
:10330000B301CE0101960E948B1801963C0170E03A
:1033100060E06615770508F071C089858111102B72
:10332000A02FAA0F09F067C0A2014A0D5B1DCA01B8
:1033300001960997D0F5C4018E0D9F1D8038910527
:10334000A0F5CA019695982F882797958795880D9F
:10335000991D8E0D9F1D4F3F540709F454C0212F16
:103360000C2C01C0220F0A94EAF7FC01E055FD4F36
:10337000B0810C85002371F12B2B2083C114D10463
:10338000A1F04730510589F0212F30E00E8402C0B2
:10339000359527950A94E2F7FC01E05DFC4F10811A
:1033A0004C854423D1F0212B20830D85011118C0B9
:1033B0002FEFE21AF20A4A855B85E416F506CCF097
:1033C0005FEFA51AB50A01E0F12CE12C6F5F7F4F8A
:1033D0001A2F9FCF20952B23D0CF20952123E4CFE8
:1033E00081E0E81AF108F7FE04C09FEFA91AB90AB4
:1033F000710101E0EBCF0A2FA12FE8CF298531E041
:103400002327298768CFC114D10409F0BDCFCDCFC0
:103410002F960FB6F894DEBF0FBECDBFDF91CF91D0
:103420001F910F91FF90EF90DF90CF90BF90AF90E2
:103430009F908F907F906F905F904F903F902F90D4
:1034400008952F923F924F925F926F927F928F9248
:103450009F92AF92BF92CF92DF92EF92FF920F9323
:103460001F93CF93DF93482E362E24E0429FC00156
:1034700011249C012F5F3F4FEC012296483308F046
:10348000B4C0DC01AA56B74DFD015490F901EA56CB
:10349000F74DB490FE01EA56F74DD490FD013396F6
:1034A000E49151E0E13009F050E0752E4E3208F021
:1034B000A1C0AC014252584DFA016490F901E252A8
:1034C000F84DC490FE01E252F84D1491FA01339682
:1034D000E49141E0E13009F040E0A42E8250994DA2
:1034E000FC018490F901E250F94DE490C250D94DAD
:1034F000FE01C491FC013396E491CF3751F12224AF
:103500002394E13009F0212CD0E00E2C000CFF08B0
:10351000E30CF11C37FCFA94082C000C9908840C7D
:10352000911C47FC9A94CC0FDD1FFE01EB5FFD4F11
:1035300040815181022D20E0B701C4010E94D018C2
:10354000C755DE4F4881598121E0B701C4010E946F
:10355000D0181F37D1F0E12FF0E0EE0FFF1FE95830
:10356000FE4F408151816C2DCC0C770B630D711D8A
:1035700037FC7A95862D660C990B0A2D21E0840D77
:10358000911D47FC9A950E94D018FFE7DF16D1F0F5
:10359000ED2DF0E0EE0FFF1FED58FE4F4081518101
:1035A0006B2DBB0C770B630D711D37FC7A95852D48
:1035B000550C990B072D21E0840D911D47FC9A9520
:1035C0000E94D018DF91CF911F910F91FF90EF9043
:1035D000DF90CF90BF90AF909F908F907F906F9033
:1035E0005F904F903F902F900895512CB12C712CEB
:1035F0004FE7D42EA12C1FE7C12C612C6FCF2F9247
:103600003F924F925F926F927F928F929F92AF9272
:10361000BF92CF92DF92EF92FF920F931F93CF93BF
:10362000DF93482E362E24E0429FC00111249C01D6
:103630002F5F3F4FEC012296403308F0B4C0DC010D
:10364000A25CB94DFD015490F901E25CF94DB490D2
:10365000FE01E25CF94DD490FD013396E49151E016
:10366000E13009F050E0752E4E3208F0A1C0AC01F7
:103670004A575A4DFA016490F901EA57FA4DC4903D
:10368000FE01EA57FA4D1491FA013396E49141E0B4
:10369000E13009F040E0A42E86589B4DFC01849057
:1036A000F901E658FB4DE490C658DB4DFE01C4918C
:1036B000FC013396E491CF3751F122242394E13079
:1036C00009F0212CD0E00E2C000CFF08E30CF11CBB
:1036D00037FCFA94082C000C9908840C911C47FCC8
:1036E0009A94CC0FDD1FFE01EB5FFD4F40815181AD
:1036F000022D20E0B701C4010E94D018C755DE4F4B
:103700004881598121E0B701C4010E94D0181F37B8
:10371000D1F0E12FF0E0EE0FFF1FE958FE4F40819E
:1037200051816C2DCC0C770B630D711D37FC7A9594
:10373000862D660C990B0A2D21E0840D911D47FC06
:103740009A950E94D018FFE7DF16D1F0ED2DF0E03A
:10375000EE0FFF1FED58FE4F408151816B2DBB0CCA
:10376000770B630D711D37FC7A95852D550C990BE0
:10377000072D21E0840D911D47FC9A950E94D018D9
:10378000DF91CF911F910F91FF90EF90DF90CF903D
:10379000BF90AF909F908F907F906F905F904F9071
:1037A0003F902F900895512CB12C712C4FE7D42EBF
:1037B000A12C1FE7C12C612C6FCF0895FC01108252
:1037C0000895CF93DF93FC01968D9E3121F480E024
:1037D000DF91CF910895DB018C91DF01A90FB11D1D
:1037E0008C93A1E0A90FA68FAE3189F3EA018881FD
:1037F000AE0FBF2FB11D8C939E5F968F81E0E8CFF7
:10380000CF93DF93EC019E8D80E09E3189F0FE0125
:10381000E90FF11DEC17FD0729F0DF018E91808380
:10382000FD01F8CFDB018C9180839F5F968F81E053
:10383000DF91CF910895FC01968D9E3151F0DB010F
:103840008C91DF01A90FB11D8C939F5F968F81E052
:10385000089580E00895CF93DF93FC01868D8E312B
:1038600021F480E0DF91CF910895DB019C91DF018D
:10387000A80FB11D9C93A1E0A80FA68FAE3189F3CC
:10388000EA019881AE0FBF2FB11D9C93A2E0A80F53
:10389000A68FAE3131F3E9019881AE0FBF2FB11D74
:1038A0009C938D5F868F81E0DDCF8550893098F4C1
:1038B000E82FF0E0E25AF34E0C9454326E1C6E1C6A
:1038C0006E1C6D1C6D1C671C671C691C691C84E0E8
:1038D000089585E0089589E0089583E00895CF93E1
:1038E000DF9300D01F92CDB7DEB7663041F067306E
:1038F00059F10F900F900F90DF91CF910895833081
:10390000A8F08630B0F78EE08B8383E08A8319823B
:103910009E012D5F3F4FAE014E5F5F4FBE016F5F57
:103920007F4F80E097E00E942B1CE3CF83E08A83E7
:103930001982AE014E5F5F4FBE016F5F7F4F80E027
:1039400097E00E94E11BD5CF833020F0863088F6C7
:103950008EE001C082E08983BE016F5F7F4F80E00F
:1039600097E00E941B1CC5CF0F931F93061B170BDC
:1039700017FF03C01195019511094130C9F4E22FD9
:10398000F0E09AE2899FE00DF11D1124E15FF04E15
:103990002491849130E0359527953595279520170A
:1039A0003107A4F0837009F48FEF1F910F910895F0
:1039B000853039F0045211090730110538F483E0DD
:1039C000F4CF0F51110905301105C8F380E0EDCF98
:1039D000CF9388E00E94AD15811105C084E00E945C
:1039E000AD15882339F0809199028093950286E085
:1039F0008093990249E05EE161E170E080E290E04D
:103A00000E941615809141079091420764E270E090
:103A10000E9440328231910568F4C1E1099708F0B3
:103A2000CEE142E05EE169E170E08BE590E00E946A
:103A3000161504C0CFE14B9708F0C0E26C2F70E080
:103A400041E084E390E00E945818C0FD09C04EEFA9
:103A50005DE16CE170E08DE290E0CF910C94161581
:103A6000CF9108950F9300E020E043ED51E263E031
:103A700070E090E080E00E94D01821E04DE951E232
:103A800063E070E090E080E00E94D0180F9108950C
:103A90000F931F93CF93DF93C2E3D0E018E400E8C5
:103AA000402F411BBE01812F90E00E94E61484E16B
:103AB000C833D1050CF48CEE180F2296C034D10512
:103AC00079F700E020E040E252E267E070E080E158
:103AD00090E00E94D01821E043EF51E267E070E0EF
:103AE00080E190E00E94D01820E040EE57E163E1D1
:103AF00070E089E590E00E94D01821E044E857E1A9
:103B000063E170E089E590E00E94D018DF91CF91E9
:103B10001F910F910895FF920F931F93CF93DF93FF
:103B200040E86FE270E090E080E00E94E614C1E3BC
:103B3000D0E0BE01CE01817099270E9470182196B5
:103B4000CA33D105B1F7809192028823C1F0C091A8
:103B50001501D0911601D195C195D10900E020E061
:103B60004DED56E170E060E0CE010E94D01821E0FA
:103B700041EC56E170E060E0CE010E94D0188091E7
:103B80000001882359F1C09187020C2E000CDD0B37
:103B900000E021E042EE56E16EEF7FEFCE010E94A1
:103BA000D01821E042EE56E16EEF7FEFCE01C096D5
:103BB0000E94D01821E042EE56E16EEF7FEFCE0179
:103BC000805A9F4F0E94D01821E042EE56E16EEFDE
:103BD0007FEFCE0180579F4F0E94D0188091410700
:103BE000909142076CE070E00E944032892B31F4E2
:103BF00080917A0291E0892780937A0280911A015C
:103C00008531A8F06AE00E943432F82ED0E0C0E09E
:103C100010E0F11681F000E021E04BEB56E16BE3A0
:103C200070E0CE010E94D0181F5F2496F2CF9091D1
:103C30007A029111E7CF80919102813001F5809154
:103C40000A01853120F490917A029923C1F06AE04B
:103C50000E943432C1E8D0E094E0899FC019D109B4
:103C60001124C138D10559F001E021E04BEB56E1B8
:103C70006BE370E0CE010E94D0182496F2CFDF9162
:103C8000CF911F910F91FF9008950F931F93CF93A2
:103C9000DF9388E00E94AD15C09199028823A1F0BE
:103CA000CC3021F410929802109297028EE197E0A6
:103CB0000E94DE1BC093950286E080939902DF91FB
:103CC000CF911F910F910895C23009F490C0F0F484
:103CD000CC2309F45FC0C13009F467C0809141076B
:103CE0009091420765E070E00E944032892B39F7DD
:103CF00080918E02882319F3815080938E02811166
:103D0000DECF8091990280939502D6CFCC3009F412
:103D100073C0C13109F479C0C93001F70E948B1D0D
:103D2000809141079091420765E070E00E94403227
:103D3000892B71F4E0911E07EE2309F47CC0E15059
:103D4000E0931E07F0E0E050F94F8081809301017D
:103D500080911401882379F090918702890F803D2A
:103D60000CF471C0809387028091870218161CF4AE
:103D700080538093870280910201909103018038E3
:103D800091050CF0ABCF40910101609107010E94B9
:103D9000FF1AA4CF00E021E04BE25DE170E060E0BB
:103DA00090E080E00E94D01899CF00E021E04FE63B
:103DB0005BE170E060E090E080E00E94D0188091CC
:103DC0008E02893008F48ACFD0E0C0E008E210E02B
:103DD00040E0B801CE010E9458180F5F1F4F003419
:103DE0001105B1F72196C038D10581F777CF00E0F2
:103DF00021E04AEE58E1D2CF00E021E045E858E169
:103E00006AE170E082E290E0CDCF0E94481D0E94FE
:103E1000321D00E020E042E558E163E170E08DE50D
:103E200090E00E94D01821E04DE058E163E170E09D
:103E30008DE590E0B7CF10921401C093950286E013
:103E40008093990285CF109287028ECFCF92DF9216
:103E5000EF92FF926B017C01C114D104E104F104E3
:103E600041F00E947931A70196010E94D1316B0186
:103E70007C01C701B601FF90EF90DF90CF900895CD
:103E80001F920F920FB60F9211248F939F938091E0
:103E9000E1009091E100937F9093E10083FF0FC0D8
:103EA0001092E90091E09093EB001092EC0092E305
:103EB0009093ED001092AF0298E09093F00082FF93
:103EC00022C093E09093E9009091F200992319F0B9
:103ED0009AE39093E8009091A002992341F0909189
:103EE000A00291509093A002911101C05D9A90910F
:103EF000AE02992341F09091AE0291509093AE02A0
:103F0000911101C0289A84FF18C08091E2008E7E32
:103F100081608093E2008091E1008F7E8093E100D8
:103F20008091A1028E7E80618093A1029F918F91EA
:103F30000F900FBE0F901F90189580FFF7CF8091C4
:103F4000E2008E7E80618093E2008091E1008E7EAF
:103F50008093E1008091A1028E7E8160E5CF1F9267
:103F60000F920FB60F921124CF92DF92EF92FF9231
:103F70000F931F932F933F934F935F936F937F9371
:103F80008F939F93AF93BF93EF93FF93CF93DF9361
:103F9000CDB7DEB76C97DEBFCDBF1092E900809140
:103FA000E80083FF25C068E0CE0145960E946017B7
:103FB00082EF8093E8008D8987FF39C09091E800F7
:103FC00090FFFCCF982F907609F034C19E894F89DD
:103FD000588D2F89F88C911131C0803861F580910E
:103FE0009F028093F1001092F1008EEF8093E80021
:103FF0006C960FB6F894DEBF0FBECDBFDF91CF91A8
:10400000FF91EF91BF91AF919F918F917F916F91B0
:104010005F914F913F912F911F910F91FF90EF90E2
:10402000DF90CF900F900FBE0F901F9018959EEFCE
:104030009093E800C7CF1092F100D5CF913059F49A
:104040008111D3CF4130510581F680919F028D7F40
:1040500080939F02CACF933049F48111C6CF41307B
:10406000510519F680919F028260F2CF953041F49C
:104070008091E80080FFFCCF20682093E300B5CF5B
:10408000963009F0A9C00B8D1C8D22E01092E9003A
:1040900010929D0210929C02F2122EC010929B026E
:1040A00010929A020E942F171F8299E09983FA8238
:1040B00091E09E8390EA98879AEF998720919C02DD
:1040C00030919D02275F3F4F3C832B838D8310925D
:1040D000E90010929D0210929C0210939B020093A3
:1040E0009A0249E050E0BE016F5F7F4F80E00E947E
:1040F00009170E942F1779CF10939B0200939A0201
:104100000E941316DC0112960D911C9101151105E8
:1041100009F451C1D801ED91FC910480F581E02DA5
:10412000BE016B5E7F4FC8010995009709F03EC143
:10413000F80100851185EACFF3E0FF120EC08F89E8
:10414000882309F440C0823061F440E860E189E6E8
:1041500094E20E94D616811148CF81E28093EB0051
:1041600047CF813029F440E86BE08DE594E2F1CF50
:10417000833099F70E941316DC011296ED90FC90A3
:104180008E010F5F1F4F6801E114F10479F0D70130
:10419000ED91FC910680F781E02DB801C7010995EA
:1041A000080F111DF701E084F184EECFD8011C92B5
:1041B000F60101900020E9F73197BF016C197D09E4
:1041C00040E0C601C6CF67E474E2FB01449150E0D1
:1041D00080E80E94091709CF973009F4BECF9830C4
:1041E00021F481E08093F10000CF993009F0FDCEF9
:1041F000837009F0B2CFEDE6F1E081E031E096E3C3
:104200002191222371F08093E9003093EB00DF01CC
:1042100011972C912093EC009093ED008F5F8730E5
:1042200079F78EE78093EA001092EA008F898093F5
:10423000AF02DBCE8B8D9C8D1092E90010929D0217
:1042400010929C0290939B0280939A02898D811117
:1042500092C08E899D89913A49F4813209F07DCFCF
:1042600047E050E065E271E080E0B3CF913209F0C1
:1042700074CF833269F48F89988DB0E0A0E0809389
:10428000210190932201A0932301B0932401ADCE8C
:10429000803269F48091E80082FFFCCF67E085E21C
:1042A00091E00E9460178BEF8093E8009ECE8232EF
:1042B00009F09BCE8F8980932C01EEEFFFE785916B
:1042C00094918B3F9C4D51F1E0E0F8E08091250105
:1042D00090912601A0912701B0912801803B944044
:1042E000A105B105F1F480912C0180FD1AC0EE3FCB
:1042F0008AE0F80789F587E797E7918380838091C3
:10430000600080939E0288E19BE00FB6F894A89528
:10431000809360000FBE9093600067CEEEEFFAE0EE
:10432000D5CF808191818737974709F05ECEA895D8
:104330008091600088618093600080919E028093EC
:104340006000EE3F2AE0F20789F08091FE0A90912A
:10435000FF0A9183808349CE8081918187379807B6
:1043600051F29093FF0A8093FE0AC5CF1092FF0A84
:104370001092FE0A3ACE0E941316DC0112960D919D
:104380001C910115110509F4E8CED801ED91FC91BD
:104390000190F081E02DBE016B5E7F4FC801099551
:1043A000811123CEF80100851185EBCF181619066F
:1043B0000CF41BCED2CEF1E0FF12BECE6BE474E261
:1043C00004CF1F920F920FB60F9211242F933F9399
:1043D0008F939F93AF93BF938091800290918102BE
:1043E000A0918202B091830230917B0223E0230FDF
:1043F0002D3758F50196A11DB11D20937B028093A6
:10440000800290938102A0938202B09383028091F4
:104410007C0290917D02A0917E02B0917F02019674
:10442000A11DB11D80937C0290937D02A0937E021A
:10443000B0937F02BF91AF919F918F913F912F9148
:104440000F900FBE0F901F90189526E8230F02962D
:10445000A11DB11DD2CF1092B3061092B20688EE04
:1044600093E0A0E0B0E08093B4069093B506A093EB
:10447000B606B093B70685E692E09093B1068093B6
:10448000B0068FEF9FEF9093BD068093BC0610920D
:1044900043071092440720E1209345079093420779
:1044A0008093410710924A0710924B0710924C07D5
:1044B00010924D0710924E0787E792E090933F07C6
:1044C00080933E07EFE1F7E0119287E0ED33F807C4
:1044D000D9F710923D07E0E0F7E0119287E0EE3166
:1044E000F807D9F710921E070895CF93DF93CDB741
:1044F000DEB7A3970FB6F894DEBF0FBECDBF78949A
:1045000084B5826084BD84B5816084BD85B58260D8
:1045100085BD85B5816085BD80916E008160809389
:104520006E001092810080918100826080938100F2
:104530008091810081608093810080918000816002
:10454000809380008091910082608093910080919F
:1045500091008160809391008091900081608093B0
:1045600090008091C10084608093C1008091C1005F
:1045700082608093C1008091C10081608093C100FE
:104580008091C30081608093C3008091C0008260ED
:104590008093C0008091C20081608093C2008091AE
:1045A0007A00846080937A0080917A0082608093A0
:1045B0007A0080917A00816080937A0080917A00FD
:1045C000806880937A001092AF0210929F0210923E
:1045D000A1028091D70081608093D70080EA809308
:1045E000D80089B5806189BD89B5826089BD09B46B
:1045F00000FEFDCF61E070E080E090E00E94921745
:104600008091D8008F7C80618093D8008091E000F9
:10461000807F8093E0008091E1008E7E8093E100B6
:104620008DE08093E200559A209A81EC80937C0083
:1046300085B1806F85B9249884B1866E84B95E9AFD
:104640005F988AB1806D8AB9769A6E9881B3806FCF
:1046500081BB899880B38D7080BB80E58CBD81E083
:104660008DBD0E94C5175F9A0E94C5175E985C9821
:10467000E3E1F0E280E290E224912EBD00000DB46F
:1046800007FEFDCF31968E179F07B1F75C9A81E840
:104690008093640081E0809365000E945018803808
:1046A00039F42E9880916400806280936400FFCF7B
:1046B0008BE280934507809164008E7F8093640035
:1046C00080917A00806480937A0080917A0086FDE0
:1046D000FCCF00917800109179000E946D17AB011A
:1046E000BC01C801B0E0A0E0DC01992788278C015B
:1046F0009D01040F151F261F371FC901B801611541
:1047000071058105910511F00E94C8318091640006
:10471000816080936400809199028093950283E187
:104720008093990265E0A62EB12C7DE5272E312CD1
:10473000E0ED8E2E99249A942FB7F8948091800200
:1047400090918102A0918202B09183022FBF2091AB
:104750004E07222371F020914607821B80934F075A
:1047600010924E0780E090E0892B31F30E94000008
:10477000D9CF40914A0750914B0760914C077091F7
:104780004D0784179507A607B70770F4481B4230FA
:1047900048F383B7817F83BF83B7816083BF8895E8
:1047A00083B78E7F83BFDECF21E020934E078093B7
:1047B000460790934707A0934807B0934907209175
:1047C0004507820F911DA11DB11D80934A0790934B
:1047D0004B07A0934C07B0934D07809141079091F0
:1047E00042070196909342078093410780914307C7
:1047F000809344070E94501880934307E0919902E8
:10480000E53120F5F0E0E95FFB4D0C9454322924AA
:104810003B243B24A724C324CD2640242627712FE4
:104820003B24262426243B24C82F93267B2626249B
:104830003B24DE2F1C24222483E18093950284E113
:10484000809399020E94E81C0E94B8150E94B81536
:1048500089CF80E1E1E3F1E0A1E1B1E001900D92C7
:104860008A95E1F780E1E1E4F1E0A1E0B1E00190B7
:104870000D928A95E1F70E94CB150E94451EE6CF66
:10488000409197025091980286E0849F9001859F05
:10489000300D1124F901EB5BFC4DE49180939502FE
:1048A000E0939902F901EA5BFC4D649160938E02FA
:1048B000F901E95BFC4D8491982F833008F090E07A
:1048C00090938F02982F823008F492E09250909348
:1048D0009002F901E85BFC4D811124C01092940212
:1048E00010929302E491E0939102F901E75BFC4D91
:1048F000E49181E0E13009F080E08093920281E070
:10490000611101C080E080938D02F901E65BFC4DEE
:10491000E491E09396024F5F5F4F5093980240936B
:10492000970294CF1092910280FF07C0E491F0E0CB
:10493000F0939402E0939302D8CFE49180E890E062
:104940008E1B91099093940280939302CECF8DE3B6
:1049500097E00E94DE1B8EE197E00E94DE1B109222
:104960008C0280E1E1E4F1E0A1E0B1E001900D9280
:104970008A95E1F783E08093950284E08093990221
:104980001092000163CF0E94CB1588E00E94AD1504
:10499000882351F08EE197E00E94DE1B84E0809333
:1049A000950286E00C94DA2F40E864E370E090E032
:1049B00080E00E94E61406E310E0B80190E080E099
:1049C0000E9470180E5F1F4F00341105B1F710914F
:1049D0008C0280911E07811160C0173008F05DC005
:1049E000E12FF0E0EA50FB4D0C945432FD24D32526
:1049F000E425F5250F26F5252B2689E28983BE01BE
:104A00006F5F7F4F80E097E00E941B1C02E0E02E6A
:104A1000F12C85E2C82E98E2D92E26E2722E32E2DF
:104A2000632E43E2542E04E257E2452ECB8ADA8607
:104A300079829E012D5E3F4FAE01465F5F4FBE0102
:104A40006F5F7F4F80E097E00E942B1C6B8A5A8635
:104A500009839E012D5E3F4FAE01465F5F4FBE0151
:104A60006F5F7F4F80E097E00E942B1C0A8749828E
:104A7000AE01465F5F4FBE016F5F7F4F80E097E002
:104A80000E94E11BEA94EF2809F089C085E0809339
:104A9000040190920301809202018091410790915C
:104AA0004207B5010E944032892B49F5209102014D
:104AB0003091030180911E07815080931E07E82FDB
:104AC000F0E0E050F94F9081909301019091040142
:104AD000290F311D97FD3A95309303012093020170
:104AE00081110DC0109204011F5F10938C021730CA
:104AF00030F084E08093950286E08093990200E094
:104B000020E04DE253E26DE270E08CE590E00E941F
:104B1000D01821E04BE652E264E070E087E590E0D7
:104B20000E94D01880918C028250843008F0DAC044
:104B300021E042E552E263E170E086E490E00E9409
:104B4000D01800E020E040E252E267E070E080E14F
:104B500090E00E94D01821E043EF51E267E070E05E
:104B600080E190E00E94D01840910101609107011E
:104B7000809102010E94FF1A20E043ED51E263E0C0
:104B800070E090E080E00E94D01821E04DE951E211
:104B900063E070E090E080E00E94D01857CEEE24F1
:104BA000E394F12C43CFA5E0EA2EF12C00E2098337
:104BB000BE016F5F7F4F80E097E00E941B1C31E0D9
:104BC000E31AF108A1F769CFF9E0EF2EF12C00E22A
:104BD0000983BE016F5F7F4F80E097E00E941B1C3E
:104BE00041E0E41AF108A1F758CF00E20983BE01C1
:104BF0006F5F7F4F80E097E00E941B1C0983BE011E
:104C00006F5F7F4F80E097E00E941B1C0983BE010D
:104C10006F5F7F4F80E097E00E941B1C3ECF0BE24E
:104C20000A87EAE2FE2EF982AE01465F5F4FBE01BF
:104C30006F5F7F4F80E097E00E94E11BFA86098357
:104C4000AE01465F5F4FBE016F5F7F4F80E097E030
:104C50000E94E11B22CF92E0E92EF12C2BE1C22E23
:104C60003EE1D32E4CE1742E58E1652E69E1562EBB
:104C70000AE17DE1472ECB8ADA8679829E012D5E9C
:104C80003F4FAE01465F5F4FBE016F5F7F4F80E0D9
:104C900097E00E942B1C6B8A5A8609839E012D5E29
:104CA0003F4FAE01465F5F4FBE016F5F7F4F80E0B9
:104CB00097E00E942B1C0A874982AE01465F5F4F36
:104CC000BE016F5F7F4F80E097E00E94E11BEA9496
:104CD000EF2821F48BEF80930401DFCEEE24E394E0
:104CE000F12CC9CF00E021E04BE352E265E170E036
:104CF00087E590E024CF8DE397E00E94DE1B8EE1F4
:104D000097E00E94DE1B8FE0809395028EE08093F7
:104D1000990282E3809311018CE890E09093030163
:104D20008093020193CD0E94CB158EE08093950273
:104D300086E08093990212E31093110186E38B8B36
:104D400087E38A878FE089839E012D5E3F4FAE0106
:104D5000465F5F4FBE016F5F7F4F8FE197E00E941C
:104D60002B1C83E38B8B84E38A8785E389839E01F5
:104D70002D5E3F4FAE01465F5F4FBE016F5F7F4FBD
:104D80008FE197E00E942B1C1983BE016F5F7F4F5C
:104D90008FE197E00E941B1C59CD85E0809395021E
:104DA00087E0809399028AE090E0909313018093CA
:104DB00012011092160110921501909191029130FA
:104DC00071F480911A018A3A18F4865F80931A016F
:104DD00080911A018A3A18F4865F80931A01209113
:104DE0001A0180910A0187FD2CC080E2820F809316
:104DF0001C01923041F58AEA90E030E1E1E0F1E017
:104E0000DF011D923A95E9F7909303018093020127
:104E100087E38093070181E080930D0180930E0169
:104E200080E491E0821B9109813F910514F080EFAD
:104E300090E080930A0180930C0181E080938B02C3
:104E400005CD80EAD4CF8CE890E0D7CF0E94CB1577
:104E50000E948B1D90918D0280913D07992309F44A
:104E6000B5C090918E029111B1C08111AFC087E0A1
:104E70008093950286E0809399028091910281301F
:104E800009F4AFC2823009F481C489E0E1E5F1E0C0
:104E9000DE01539601900D928A95E1F789E0EAE5EB
:104EA000F1E0DE011A9601900D928A95E1F789E012
:104EB000E3E6F1E0DE01119601900D928A95E1F7AB
:104EC0008091410790914207B5010E944032892BA1
:104ED00009F05EC010928A021092890280918D02C0
:104EE000882339F080918E02882319F081508093B5
:104EF0008E02E0913D07EE2309F435C5E150E093C1
:104F00003D07F0E0E15EF84F808180931101E09170
:104F10001E07EE2309F42AC5E150E0931E07F0E0D6
:104F2000E050F94F808180930101D0909102DD2003
:104F300079F170901101E0901201F090130110923C
:104F40008802609001018BEF870D893070F4009129
:104F5000020110910301872D0E94551C262D4D2D15
:104F6000B7010E94B41C80938A028BEF860D8930B2
:104F700078F4C0900201D0900301862D0E94551C48
:104F80008701272D41E0B6010E94B41C809389025D
:104F90002091140110919002F0908F02222309F4C5
:104FA00038C58091930290919402409115015091DF
:104FB0001601622F022E000C770B1111DAC4FF20AC
:104FC00009F401C5E2E0FE12DCC4F2C4D090910203
:104FD000BFE06B2EB7E27B2EDD2081F00091020155
:104FE000109103012091120130911301021B130B48
:104FF00017FF03C0119501951109380181113DCFAB
:10500000F09043071092140110911101F3FE7BC040
:10501000183048F5153008F065C0112309F43FC079
:10502000123009F02ACFF7FC04C08F2D807509F4E7
:1050300024CF80911D018F5F80931D01853078F012
:1050400083E089831A86AE014F5F5F4FBE01665FC2
:105050007F4F8FE197E00E94E11B10921D01F6FE49
:105060004BC085E022C01E3009F007CF10911E0111
:10507000F6FEA1C089E0111188E089838EE08A875D
:10508000AE014F5F5F4FBE01665F7F4F8FE197E0DC
:105090000E94E11B81E0182710931E01EECEF7FC61
:1050A00008C08F2D807529F481E0898382E08A878A
:1050B00038C1F6FE07C081E0898384E08A8785E0F5
:1050C0008B8B16C1F7FE06C081E0898384E08A8756
:1050D00087E0F6CFF4FED1CE81E0898384E08A8731
:1050E00086E0EECF82E08983BE016F5F7F4F8FE164
:1050F00097E00E941B1CC1CE87E0F7FCD6CF86E06C
:10510000F4FEBBCED2CF1230B9F020F08BEF810F7E
:10511000833010F1F2FE5FC01E3098F5183008F0B1
:1051200048C01111AACEF7FC34C08F2D807589F5C7
:1051300081E089838EE0BBCF10921D0183E08983DB
:105140001A86AE014F5F5F4FBE01665F7F4F8FE1F2
:1051500097E00E94E11BDECF10921D0182E089835F
:1051600083E08A871B8A9E012F5F3F4FAE01465F17
:105170005F4FBE016D5E7F4F8FE197E00E942B1C59
:10518000C9CF1E3009F472CF1F3009F076CE81E00E
:10519000C6C0F6FE06C081E089838EE08A8788E07B
:1051A0008FCFF7FE6ACE81E089838EE08A878AE01E
:1051B00087CF8EE098CFF7FE06C08BE0112309F46D
:1051C0005CCF8AE05ACFF4FE65CF8DE0112309F45D
:1051D00054CF8CE052CF183030F01E3080F183E095
:1051E0001E3009F49CC01F3009F4CAC0D8F5111153
:1051F00044CE81E0F7FCF2C0F6FE9EC0B1E56B162E
:10520000710410F4D11062C08EEF8093140182E11A
:10521000898381E08A871B8A9E012F5F3F4FAE0101
:10522000465F5F4FBE016D5E7F4F8FE197E00E944A
:105230002B1C83E0898380E18A8781E141CF8EE066
:10524000898383E08A871B8A9E012F5F3F4FAE01CF
:10525000465F5F4FBE016D5E7F4F8FE197E00E941A
:105260002B1CC1CF193119F01C3109F006CEF6FE06
:10527000B1C025E66216710408F4ACC010911F019C
:105280008EEF8093140111119FC08DE1898388E115
:105290008A8789E18B8B9E012F5F3F4FAE01465F6E
:1052A0005F4FBE016D5E7F4F8FE197E00E942B1C28
:1052B0008AE18983BE016F5F7F4F8FE197E00E9493
:1052C0001B1C81E0182710931F01D7CDE8E36E1651
:1052D000710410F08FEF99CFF4E26F167104B0F003
:1052E0008FEF8093140180E1898381E18A871B8A93
:1052F0009E012F5F3F4FAE01465F5F4FBE016D5E67
:105300007F4F8FE197E00E942B1CB7CD0AE160161A
:10531000710408F4B2CD8FEF8093140180E189838A
:105320001A86AE014F5F5F4FBE01665F7F4F8FE110
:1053300097E00E94E11BA1CDF5FE9FCD8091150164
:10534000909116010D970CF498CD81E08093140193
:1053500083E0898386E18A871B8A9E012F5F3F4F06
:10536000AE01465F5F4FBE016D5E7F4F8FE197E0FC
:105370000E942B1C83E1898384E18A8785E1A0CE8A
:10538000F4FC05CFF6FE79CD15E66116710408F43C
:1053900074CD81E080931F018EEF809314018BE127
:1053A00089838EE18A878CE18B8B9E012F5F3F4F33
:1053B000AE01465F5F4FBE016D5E7F4F8FE197E0AC
:1053C0000E942B1C87E18FCE8BE189838EE18A8737
:1053D0008CE160CF8EEF809314018FE189838FE0A1
:1053E00066CE80911E078111A9C0C0900201D090A5
:1053F0000301209112013091130110920401809158
:105400000101823009F40EC18E3009F456C18111B8
:1054100095C0C21AD30AD7FE03C0D194C194D10853
:10542000809111018F3009F46EC020F087518930CE
:1054300008F489C052E3C516D1040CF088C08091ED
:105440008802F12C81110CC06091960270E06B5FB4
:105450007F4F072E000C880B990B0E94261FF62EFB
:1054600062E070E080E090E00E94261F2B013C018A
:1054700064E070E080E090E00E94261F6F8F78A3C8
:1054800089A39AA385E08F1508F075C080918602E4
:1054900081110BC06BE070E080E090E00E94261F5D
:1054A000672B682B692B09F049C01EE1C116D10496
:1054B0000CF0B2C083E0898386E18A871B8A9E0153
:1054C0002F5F3F4FAE01465F5F4FBE016D5E7F4F66
:1054D00080E097E00E942B1C83E1898384E18A8726
:1054E00085E18B8B9E012F5F3F4FAE01465F5F4F83
:1054F000BE016D5E7F4F80E097E00E942B1C81E033
:10550000809304011BC031E1C316D10404F566E0A9
:1055100082E00E946F1C81E0898384E08A8787E0B3
:105520008B8B9E012F5F3F4FAE01465F5F4FBE01E9
:105530006D5E7F4F80E097E00E942B1C10928802E6
:1055400010928602A2CC4FE4C416D10404F380E189
:10555000898382E18A871B8A9E012F5F3F4FAE01BC
:10556000465F5F4FBE016D5E7F4F80E097E00E9417
:105570002B1C8FEFC5CF0091120110911301609188
:105580000201709103012091110141E08F2D0E94D1
:10559000B41C811109C00F8D18A129A13AA1012BBA
:1055A000022B032B09F072CFC301B2016A5F7F4F58
:1055B0008F4F9F4F8F2D0E946F1C23E0F21631F109
:1055C0002F1568F031E0F316B1F042E0F41609F45B
:1055D000A2CF81E0898384E08A8785E0A1CF54E06F
:1055E000F51671F085E0F812F4CF81E089838EE042
:1055F0008A878CE095CFF98284E08A8786E090CF15
:1056000081E089838EE08A878AE08ACF81E089837E
:105610008EE08A8788E084CF97E2C916D1040CF423
:105620008DCF95CF80918802F12C811107C063E066
:1056300070E080E090E00E94261FF62E62E070E0AD
:1056400080E090E00E94261F2B013C010091120196
:1056500010911301609102017091030120911101D9
:1056600041E08F2D0E94B41C882309F480C0C3013F
:10567000B2016A5F7F4F8F4F9F4F8F2D0E946F1C2B
:10568000A1E0FA16C1F0FA1688F0B2E0FB1256CF8C
:1056900087E08983FA86AE014F5F5F4FBE01665F88
:1056A0007F4F80E097E00E94E11B48CF85E089832F
:1056B00082E08A87F0CF86E0FACF80918802F3E01B
:1056C0007F2E811109C063E070E080E090E00E94CD
:1056D000261FA3E07A2E760E62E070E080E090E074
:1056E0000E94261F6B017C01009112011091130191
:1056F00060910201709103012091110141E0872D19
:105700000E94B41C882399F1C701B6016A5F7F4FDC
:105710008F4F9F4F872D0E946F1C10910E01E4E068
:105720007E1659F0F5E07F16E9F003E0701215C01F
:1057300089E0112329F088E003C08BE011118AE091
:1057400089838EE08A87AE014F5F5F4FBE01665F3F
:105750007F4F80E097E00E94E11B81E018271093C3
:105760000E01ECCE8DE0112359F38CE0E9CF61E01E
:1057700070E080E090E00E94261F672B682B692B69
:1057800009F0DCCE83E089831A8685CF80911E07DD
:1057900081117BCB10918B021630B8F4133008F0D6
:1057A00095C0113091F1123009F453C081E080931B
:1057B0008B0280913D07811168CB80919902809383
:1057C000950286E08093990260CB163079F705E068
:1057D00010E07CE3E72EEDE3FE2EE982BE016F5F71
:1057E0007F4F80E097E00E941B1CF982BE016F5F33
:1057F0007F4F80E097E00E941B1C0150110969F760
:1058000084E08093040187E021C063E070E080E0E1
:1058100090E00E94261F605E7F4DFB0164916093C3
:10582000070188E38983BE016F5F7F4F80E097E0C7
:105830000E941B1C8CEF8093040186E990E09093FA
:1058400003018093020180918B028F5F80938B0212
:105850001CCB8091020190910301209112013091A3
:105860001301821B930B97FF03C0919581959109BA
:10587000209111012F3031F1203221F1223011F02D
:1058800028E207C0209107012B31D1F32832C1F360
:1058900028E128171906C4F41091850288E3111134
:1058A00001C089E38983BE016F5F7F4F80E097E08D
:1058B0000E941B1C81E01827109385028CEF8093B7
:1058C0000401E3CA2EE1E5CF83E0C0CF20910701B8
:1058D000809111018F3079F0803269F08230D9F5F2
:1058E0002B31C9F12832B9F185E090E0233129F05C
:1058F00090E080E002C089E090E040911201509178
:105900001301840F951F90930301809302012B31A3
:1059100019F08BE3283209F48AE38983BE016F5FB3
:105920007F4F80E097E00E941B1C143071F480913F
:105930001A01909107019B3111F0983279F48E3160
:1059400008F48EE18E5180931A01109204011F5FBA
:1059500010938B029ACA84E190E0CFCF823308F48F
:1059600082E38253F0CF10921401D1CA1092040145
:10597000DCCA1230D1F4813691052CF5B2E0FB1669
:1059800019F001E0F016E1F08091120190911301FD
:10599000861B970B9093130180931201461B570BA4
:1059A000509316014093150134C0F2E0FF1206C077
:1059B0008136910544F4113019F0E6CF113009F722
:1059C0008E3191050CF730918702230F20938702C7
:1059D000461B570B5093160140931501409102014D
:1059E00050910301460F571F50930301409302014A
:1059F000860F971F9093940280939302203D14F496
:105A0000109287028091870218161CF480538093AD
:105A10008702C0909302D090940200E0123051F0BF
:105A20001130C1F4C0909302D090940220E1C20ED4
:105A3000D11C01E020E04FE651E26EEF7FEFC6019E
:105A40000E94D01821E045E251E26EEF7FEFC601DF
:105A50000E94D01832E0F31218C0C0909302D09088
:105A6000940242E0C40ED11C01E020E040E252E288
:105A700067E070E0C6010E94D01821E043EF51E2D8
:105A800067E070E0C6010E94D01820910401222333
:105A900061F08091020190910301820F911D27FD19
:105AA0009A959093030180930201509111015F8FA9
:105AB0005090170140901201452F652D842D0E94B2
:105AC000211A809191028BA3882369F080910201B1
:105AD000909103018038910534F440910101609167
